{
  "contractName": "HelloEthereum",
  "abi": [
    {
      "inputs": [
        {
          "internalType": "string",
          "name": "_msg1",
          "type": "string"
        }
      ],
      "stateMutability": "nonpayable",
      "type": "constructor"
    },
    {
      "inputs": [],
      "name": "counter",
      "outputs": [
        {
          "internalType": "uint8",
          "name": "",
          "type": "uint8"
        }
      ],
      "stateMutability": "view",
      "type": "function"
    },
    {
      "inputs": [],
      "name": "msg1",
      "outputs": [
        {
          "internalType": "string",
          "name": "",
          "type": "string"
        }
      ],
      "stateMutability": "view",
      "type": "function"
    },
    {
      "inputs": [],
      "name": "owner",
      "outputs": [
        {
          "internalType": "address",
          "name": "",
          "type": "address"
        }
      ],
      "stateMutability": "view",
      "type": "function"
    },
    {
      "inputs": [
        {
          "internalType": "string",
          "name": "_msg2",
          "type": "string"
        }
      ],
      "name": "setMsg2",
      "outputs": [],
      "stateMutability": "nonpayable",
      "type": "function"
    },
    {
      "inputs": [],
      "name": "getMsg2",
      "outputs": [
        {
          "internalType": "string",
          "name": "",
          "type": "string"
        }
      ],
      "stateMutability": "view",
      "type": "function"
    },
    {
      "inputs": [],
      "name": "setCounter",
      "outputs": [],
      "stateMutability": "nonpayable",
      "type": "function"
    }
  ],
  "bytecode": "0x60806040523480156200001157600080fd5b5060405162000f4838038062000f48833981810160405281019062000037919062000240565b8060009081620000489190620004dc565b5033600260006101000a81548173ffffffffffffffffffffffffffffffffffffffff021916908373ffffffffffffffffffffffffffffffffffffffff1602179055506000600260146101000a81548160ff021916908360ff16021790555050620005c3565b6000604051905090565b600080fd5b600080fd5b600080fd5b600080fd5b6000601f19601f8301169050919050565b7f4e487b7100000000000000000000000000000000000000000000000000000000600052604160045260246000fd5b6200011682620000cb565b810181811067ffffffffffffffff82111715620001385762000137620000dc565b5b80604052505050565b60006200014d620000ad565b90506200015b82826200010b565b919050565b600067ffffffffffffffff8211156200017e576200017d620000dc565b5b6200018982620000cb565b9050602081019050919050565b60005b83811015620001b657808201518184015260208101905062000199565b60008484015250505050565b6000620001d9620001d38462000160565b62000141565b905082815260208101848484011115620001f857620001f7620000c6565b5b6200020584828562000196565b509392505050565b600082601f830112620002255762000224620000c1565b5b815162000237848260208601620001c2565b91505092915050565b600060208284031215620002595762000258620000b7565b5b600082015167ffffffffffffffff8111156200027a5762000279620000bc565b5b62000288848285016200020d565b91505092915050565b600081519050919050565b7f4e487b7100000000000000000000000000000000000000000000000000000000600052602260045260246000fd5b60006002820490506001821680620002e457607f821691505b602082108103620002fa57620002f96200029c565b5b50919050565b60008190508160005260206000209050919050565b60006020601f8301049050919050565b600082821b905092915050565b600060088302620003647fffffffffffffffffffffffffffffffffffffffffffffffffffffffffffffffff8262000325565b62000370868362000325565b95508019841693508086168417925050509392505050565b6000819050919050565b6000819050919050565b6000620003bd620003b7620003b18462000388565b62000392565b62000388565b9050919050565b6000819050919050565b620003d9836200039c565b620003f1620003e882620003c4565b84845462000332565b825550505050565b600090565b62000408620003f9565b62000415818484620003ce565b505050565b5b818110156200043d5762000431600082620003fe565b6001810190506200041b565b5050565b601f8211156200048c57620004568162000300565b620004618462000315565b8101602085101562000471578190505b62000489620004808562000315565b8301826200041a565b50505b505050565b600082821c905092915050565b6000620004b16000198460080262000491565b1980831691505092915050565b6000620004cc83836200049e565b9150826002028217905092915050565b620004e78262000291565b67ffffffffffffffff811115620005035762000502620000dc565b5b6200050f8254620002cb565b6200051c82828562000441565b600060209050601f8311600181146200055457600084156200053f578287015190505b6200054b8582620004be565b865550620005bb565b601f198416620005648662000300565b60005b828110156200058e5784890151825560018201915060208501945060208101905062000567565b86831015620005ae5784890151620005aa601f8916826200049e565b8355505b6001600288020188555050505b505050505050565b61097580620005d36000396000f3fe608060405234801561001057600080fd5b50600436106100625760003560e01c80632f8a12fe1461006757806361bc221a1461008357806385c3bb6f146100a15780638d3945e4146100bf5780638da5cb5b146100c9578063f3571f29146100e7575b600080fd5b610081600480360381019061007c9190610482565b610105565b005b61008b610172565b60405161009891906104e7565b60405180910390f35b6100a9610185565b6040516100b69190610581565b60405180910390f35b6100c7610217565b005b6100d1610274565b6040516100de91906105e4565b60405180910390f35b6100ef61029a565b6040516100fc9190610581565b60405180910390f35b3373ffffffffffffffffffffffffffffffffffffffff16600260009054906101000a900473ffffffffffffffffffffffffffffffffffffffff1673ffffffffffffffffffffffffffffffffffffffff161461015f57600080fd5b806001908161016e9190610815565b5050565b600260149054906101000a900460ff1681565b6060600180546101949061062e565b80601f01602080910402602001604051908101604052809291908181526020018280546101c09061062e565b801561020d5780601f106101e25761010080835404028352916020019161020d565b820191906000526020600020905b8154815290600101906020018083116101f057829003601f168201915b5050505050905090565b60005b60038160ff161015610271576002601481819054906101000a900460ff168092919061024590610916565b91906101000a81548160ff021916908360ff16021790555050808061026990610916565b91505061021a565b50565b600260009054906101000a900473ffffffffffffffffffffffffffffffffffffffff1681565b600080546102a79061062e565b80601f01602080910402602001604051908101604052809291908181526020018280546102d39061062e565b80156103205780601f106102f557610100808354040283529160200191610320565b820191906000526020600020905b81548152906001019060200180831161030357829003601f168201915b505050505081565b6000604051905090565b600080fd5b600080fd5b600080fd5b600080fd5b6000601f19601f8301169050919050565b7f4e487b7100000000000000000000000000000000000000000000000000000000600052604160045260246000fd5b61038f82610346565b810181811067ffffffffffffffff821117156103ae576103ad610357565b5b80604052505050565b60006103c1610328565b90506103cd8282610386565b919050565b600067ffffffffffffffff8211156103ed576103ec610357565b5b6103f682610346565b9050602081019050919050565b82818337600083830152505050565b6000610425610420846103d2565b6103b7565b90508281526020810184848401111561044157610440610341565b5b61044c848285610403565b509392505050565b600082601f8301126104695761046861033c565b5b8135610479848260208601610412565b91505092915050565b60006020828403121561049857610497610332565b5b600082013567ffffffffffffffff8111156104b6576104b5610337565b5b6104c284828501610454565b91505092915050565b600060ff82169050919050565b6104e1816104cb565b82525050565b60006020820190506104fc60008301846104d8565b92915050565b600081519050919050565b600082825260208201905092915050565b60005b8381101561053c578082015181840152602081019050610521565b60008484015250505050565b600061055382610502565b61055d818561050d565b935061056d81856020860161051e565b61057681610346565b840191505092915050565b6000602082019050818103600083015261059b8184610548565b905092915050565b600073ffffffffffffffffffffffffffffffffffffffff82169050919050565b60006105ce826105a3565b9050919050565b6105de816105c3565b82525050565b60006020820190506105f960008301846105d5565b92915050565b7f4e487b7100000000000000000000000000000000000000000000000000000000600052602260045260246000fd5b6000600282049050600182168061064657607f821691505b602082108103610659576106586105ff565b5b50919050565b60008190508160005260206000209050919050565b60006020601f8301049050919050565b600082821b905092915050565b6000600883026106c17fffffffffffffffffffffffffffffffffffffffffffffffffffffffffffffffff82610684565b6106cb8683610684565b95508019841693508086168417925050509392505050565b6000819050919050565b6000819050919050565b600061071261070d610708846106e3565b6106ed565b6106e3565b9050919050565b6000819050919050565b61072c836106f7565b61074061073882610719565b848454610691565b825550505050565b600090565b610755610748565b610760818484610723565b505050565b5b818110156107845761077960008261074d565b600181019050610766565b5050565b601f8211156107c95761079a8161065f565b6107a384610674565b810160208510156107b2578190505b6107c66107be85610674565b830182610765565b50505b505050565b600082821c905092915050565b60006107ec600019846008026107ce565b1980831691505092915050565b600061080583836107db565b9150826002028217905092915050565b61081e82610502565b67ffffffffffffffff81111561083757610836610357565b5b610841825461062e565b61084c828285610788565b600060209050601f83116001811461087f576000841561086d578287015190505b61087785826107f9565b8655506108df565b601f19841661088d8661065f565b60005b828110156108b557848901518255600182019150602085019450602081019050610890565b868310156108d257848901516108ce601f8916826107db565b8355505b6001600288020188555050505b505050505050565b7f4e487b7100000000000000000000000000000000000000000000000000000000600052601160045260246000fd5b6000610921826104cb565b915060ff8203610934576109336108e7565b5b60018201905091905056fea2646970667358221220ff5f552a28c4df03ace79ac4b3a8f614e87fe2b953e566ffa7de0583a992c9ce64736f6c63430008110033",
  "immutableReferences": {},
  "source": "//SPDX-License-Identifier: UNLICENSED\r\n\r\npragma solidity >=0.4.11;\r\n\r\ncontract HelloEthereum {\r\n    //   1\r\n    string public msg1;\r\n\r\n    string private msg2; //   2\r\n\r\n    /*   3 */\r\n    address public owner;\r\n\r\n    uint8 public counter;\r\n\r\n    /// \r\n    constructor  (string memory _msg1)  {\r\n        // msg1 _msg1  \r\n        msg1 = _msg1;\r\n\r\n        // owner       \r\n        owner = msg.sender;\r\n\r\n        // counter 0 \r\n        counter = 0;\r\n    }\r\n\r\n    /// msg2  \r\n    function setMsg2(string memory _msg2) public {\r\n        // if  \r\n        if (owner != msg.sender) {\r\n            revert();\r\n        } else {\r\n            msg2 = _msg2;\r\n        }\r\n    }\r\n\r\n    // msg2  \r\n    function getMsg2() view public returns (string memory) {\r\n        return msg2;\r\n    }\r\n\r\n    function setCounter() public {\r\n        // for  \r\n        for (uint8 i = 0; i < 3; i++) {\r\n            counter++;\r\n        }\r\n    }\r\n}\r\n",
  "sourcePath": "/Users/han/Desktop//2022//midleTest/truffle/contracts/HelloEthereum.sol",
  "compiler": {
    "name": "solc",
    "version": "0.8.17+commit.8df45f5f.Emscripten.clang"
  },
  "schemaVersion": "3.4.10",
  "updatedAt": "2022-10-16T02:17:26.752Z",
  "devdoc": {
    "kind": "dev",
    "methods": {},
    "version": 1
  },
  "userdoc": {
    "kind": "user",
    "methods": {
      "constructor": {
        "notice": ""
      },
      "setMsg2(string)": {
        "notice": "msg2  "
      }
    },
    "version": 1
  }
}